{
  "contractName": "Lottery",
  "abi": [
    {
      "inputs": [],
      "payable": false,
      "stateMutability": "nonpayable",
      "type": "constructor"
    },
    {
      "anonymous": false,
      "inputs": [
        {
          "indexed": false,
          "internalType": "uint256",
          "name": "id",
          "type": "uint256"
        },
        {
          "indexed": false,
          "internalType": "string",
          "name": "name",
          "type": "string"
        },
        {
          "indexed": false,
          "internalType": "uint256",
          "name": "totalTikets",
          "type": "uint256"
        },
        {
          "indexed": false,
          "internalType": "uint256",
          "name": "tiketPrice",
          "type": "uint256"
        },
        {
          "indexed": false,
          "internalType": "address payable",
          "name": "seller",
          "type": "address"
        }
      ],
      "name": "ProductCreated",
      "type": "event"
    },
    {
      "constant": true,
      "inputs": [],
      "name": "productCount",
      "outputs": [
        {
          "internalType": "uint256",
          "name": "",
          "type": "uint256"
        }
      ],
      "payable": false,
      "stateMutability": "view",
      "type": "function"
    },
    {
      "constant": true,
      "inputs": [
        {
          "internalType": "uint256",
          "name": "",
          "type": "uint256"
        }
      ],
      "name": "products",
      "outputs": [
        {
          "internalType": "uint256",
          "name": "id",
          "type": "uint256"
        },
        {
          "internalType": "string",
          "name": "name",
          "type": "string"
        },
        {
          "internalType": "uint256",
          "name": "totalTikets",
          "type": "uint256"
        },
        {
          "internalType": "uint256",
          "name": "ticketsSold",
          "type": "uint256"
        },
        {
          "internalType": "uint256",
          "name": "tiketPrice",
          "type": "uint256"
        },
        {
          "internalType": "address payable",
          "name": "seller",
          "type": "address"
        },
        {
          "internalType": "bool",
          "name": "purchased",
          "type": "bool"
        }
      ],
      "payable": false,
      "stateMutability": "view",
      "type": "function"
    },
    {
      "constant": false,
      "inputs": [
        {
          "internalType": "string",
          "name": "_name",
          "type": "string"
        },
        {
          "internalType": "uint256",
          "name": "_totalTikets",
          "type": "uint256"
        },
        {
          "internalType": "uint256",
          "name": "_tiketPrice",
          "type": "uint256"
        }
      ],
      "name": "createProduct",
      "outputs": [],
      "payable": false,
      "stateMutability": "nonpayable",
      "type": "function"
    }
  ],
  "bytecode": "0x6080604052600060015534801561001557600080fd5b50336000806101000a81548173ffffffffffffffffffffffffffffffffffffffff021916908373ffffffffffffffffffffffffffffffffffffffff1602179055506107a2806100656000396000f3fe608060405234801561001057600080fd5b50600436106100415760003560e01c80637acc0b20146100465780637bf12b1c14610147578063e0f6ef8714610216575b600080fd5b6100726004803603602081101561005c57600080fd5b8101908080359060200190929190505050610234565b60405180888152602001806020018781526020018681526020018581526020018473ffffffffffffffffffffffffffffffffffffffff1673ffffffffffffffffffffffffffffffffffffffff16815260200183151515158152602001828103825288818151815260200191508051906020019080838360005b838110156101065780820151818401526020810190506100eb565b50505050905090810190601f1680156101335780820380516001836020036101000a031916815260200191505b509850505050505050505060405180910390f35b6102146004803603606081101561015d57600080fd5b810190808035906020019064010000000081111561017a57600080fd5b82018360208201111561018c57600080fd5b803590602001918460018302840111640100000000831117156101ae57600080fd5b91908080601f016020809104026020016040519081016040528093929190818152602001838380828437600081840152601f19601f820116905080830192505050505050509192919290803590602001909291908035906020019092919050505061033b565b005b61021e610678565b6040518082815260200191505060405180910390f35b6002602052806000526040600020600091509050806000015490806001018054600181600116156101000203166002900480601f0160208091040260200160405190810160405280929190818152602001828054600181600116156101000203166002900480156102e65780601f106102bb576101008083540402835291602001916102e6565b820191906000526020600020905b8154815290600101906020018083116102c957829003601f168201915b5050505050908060020154908060030154908060040154908060050160009054906101000a900473ffffffffffffffffffffffffffffffffffffffff16908060050160149054906101000a900460ff16905087565b60008351116103b2576040517f08c379a00000000000000000000000000000000000000000000000000000000081526004018080602001828103825260128152602001807f50726f766964652076616c6964206e616d65000000000000000000000000000081525060200191505060405180910390fd5b6000821161040b576040517f08c379a00000000000000000000000000000000000000000000000000000000081526004018080602001828103825260258152602001806107246025913960400191505060405180910390fd5b60008111610464576040517f08c379a00000000000000000000000000000000000000000000000000000000081526004018080602001828103825260258152602001806107496025913960400191505060405180910390fd5b6001600081548092919060010191905055506040518060e001604052806001548152602001848152602001838152602001600081526020018281526020013373ffffffffffffffffffffffffffffffffffffffff1681526020016000151581525060026000600154815260200190815260200160002060008201518160000155602082015181600101908051906020019061050092919061067e565b5060408201518160020155606082015181600301556080820151816004015560a08201518160050160006101000a81548173ffffffffffffffffffffffffffffffffffffffff021916908373ffffffffffffffffffffffffffffffffffffffff16021790555060c08201518160050160146101000a81548160ff0219169083151502179055509050507f75f809131c39228d740da0b686206b8ae86548c72bfdc872da71f4d4340301de6001548484843360405180868152602001806020018581526020018481526020018373ffffffffffffffffffffffffffffffffffffffff1673ffffffffffffffffffffffffffffffffffffffff168152602001828103825286818151815260200191508051906020019080838360005b8381101561063557808201518184015260208101905061061a565b50505050905090810190601f1680156106625780820380516001836020036101000a031916815260200191505b50965050505050505060405180910390a1505050565b60015481565b828054600181600116156101000203166002900490600052602060002090601f016020900481019282601f106106bf57805160ff19168380011785556106ed565b828001600101855582156106ed579182015b828111156106ec5782518255916020019190600101906106d1565b5b5090506106fa91906106fe565b5090565b61072091905b8082111561071c576000816000905550600101610704565b5090565b9056fe546f74616c2074696b6574732073686f756c642062652067726561746572207468656e203054696b6574732070726963652073686f756c642062652067726561746572207468656e2030a265627a7a72315820644ba1a64984c41b3c398d38df772fa40bf693b3424512167f278007b14fdf2864736f6c63430005100032",
  "source": "pragma solidity >=0.4.21 <0.7.0;\n\ncontract Lottery {\n    address owner;\n    uint public productCount = 0;\n    mapping(uint => Product) public products;\n\n    struct Ticket {\n        uint id;\n        address payable buyer;\n    }\n\n    struct Product {\n        uint id;\n        string name;\n        uint totalTikets;\n        uint ticketsSold;\n        uint tiketPrice;\n        address payable seller;\n        bool purchased;\n    }\n\n    event ProductCreated(\n        uint id,\n        string name,\n        uint totalTikets,\n        uint tiketPrice,\n        address payable seller\n    );\n\n    constructor() public {\n        owner = msg.sender;\n    }\n\n    function createProduct(string memory _name, uint _totalTikets, uint _tiketPrice) public {\n        require(bytes(_name).length > 0, \"Provide valid name\");\n        require(_totalTikets > 0, \"Total tikets should be greater then 0\");\n        require(_tiketPrice > 0, \"Tikets price should be greater then 0\");\n        productCount ++;\n        products[productCount] = Product(productCount, _name, _totalTikets, 0, _tiketPrice, msg.sender, false);\n        emit ProductCreated(productCount, _name, _totalTikets, _tiketPrice, msg.sender);\n    }\n\n    // function purchaseProduct(uint _id) public payable {\n    //     // Fetch the product\n    //     Product memory _product = products[_id];\n    //     // Fetch the owner\n    //     address payable _seller = _product.owner;\n    //     // Make sure the product has a valid id\n    //     require(_product.id > 0 && _product.id <= productCount);\n    //     // Require that there is enough Ether in the transaction\n    //     require(msg.value >= _product.price);\n    //     // Require that the product has not been purchased already\n    //     require(!_product.purchased);\n    //     // Require that the buyer is not the seller\n    //     require(_seller != msg.sender);\n    //     // Transfer ownership to the buyer\n    //     _product.owner = msg.sender;\n    //     // Mark as purchased\n    //     _product.purchased = true;\n    //     // Update the product\n    //     products[_id] = _product;\n    //     // Pay the seller by sending them Ether\n    //     address(_seller).transfer(msg.value);\n    //     // Trigger an event\n    //     emit ProductPurchased(productCount, _product.name, _product.price, msg.sender, true);\n    // }\n\n}",
  "sourcePath": "/home/zahu/Desktop/MyCode/Gems/contracts/Lottery.sol",
  "compiler": {
    "name": "solc",
    "version": "0.5.16+commit.9c3226ce.Emscripten.clang"
  },
  "schemaVersion": "3.0.21",
  "updatedAt": "2020-01-31T20:37:23.410Z",
  "networkType": "ethereum",
  "devdoc": {
    "methods": {}
  },
  "userdoc": {
    "methods": {}
  }
}